{
  "_format": "hh-sol-artifact-1",
  "contractName": "NFTMarketplace",
  "sourceName": "contracts/NFT_Marketplace.sol",
  "abi": [
    {
      "inputs": [],
      "stateMutability": "nonpayable",
      "type": "constructor"
    },
    {
      "inputs": [
        {
          "internalType": "address",
          "name": "sender",
          "type": "address"
        },
        {
          "internalType": "uint256",
          "name": "tokenId",
          "type": "uint256"
        },
        {
          "internalType": "address",
          "name": "owner",
          "type": "address"
        }
      ],
      "name": "ERC721IncorrectOwner",
      "type": "error"
    },
    {
      "inputs": [
        {
          "internalType": "address",
          "name": "operator",
          "type": "address"
        },
        {
          "internalType": "uint256",
          "name": "tokenId",
          "type": "uint256"
        }
      ],
      "name": "ERC721InsufficientApproval",
      "type": "error"
    },
    {
      "inputs": [
        {
          "internalType": "address",
          "name": "approver",
          "type": "address"
        }
      ],
      "name": "ERC721InvalidApprover",
      "type": "error"
    },
    {
      "inputs": [
        {
          "internalType": "address",
          "name": "operator",
          "type": "address"
        }
      ],
      "name": "ERC721InvalidOperator",
      "type": "error"
    },
    {
      "inputs": [
        {
          "internalType": "address",
          "name": "owner",
          "type": "address"
        }
      ],
      "name": "ERC721InvalidOwner",
      "type": "error"
    },
    {
      "inputs": [
        {
          "internalType": "address",
          "name": "receiver",
          "type": "address"
        }
      ],
      "name": "ERC721InvalidReceiver",
      "type": "error"
    },
    {
      "inputs": [
        {
          "internalType": "address",
          "name": "sender",
          "type": "address"
        }
      ],
      "name": "ERC721InvalidSender",
      "type": "error"
    },
    {
      "inputs": [
        {
          "internalType": "uint256",
          "name": "tokenId",
          "type": "uint256"
        }
      ],
      "name": "ERC721NonexistentToken",
      "type": "error"
    },
    {
      "inputs": [
        {
          "internalType": "address",
          "name": "owner",
          "type": "address"
        }
      ],
      "name": "OwnableInvalidOwner",
      "type": "error"
    },
    {
      "inputs": [
        {
          "internalType": "address",
          "name": "account",
          "type": "address"
        }
      ],
      "name": "OwnableUnauthorizedAccount",
      "type": "error"
    },
    {
      "anonymous": false,
      "inputs": [
        {
          "indexed": true,
          "internalType": "address",
          "name": "owner",
          "type": "address"
        },
        {
          "indexed": true,
          "internalType": "address",
          "name": "approved",
          "type": "address"
        },
        {
          "indexed": true,
          "internalType": "uint256",
          "name": "tokenId",
          "type": "uint256"
        }
      ],
      "name": "Approval",
      "type": "event"
    },
    {
      "anonymous": false,
      "inputs": [
        {
          "indexed": true,
          "internalType": "address",
          "name": "owner",
          "type": "address"
        },
        {
          "indexed": true,
          "internalType": "address",
          "name": "operator",
          "type": "address"
        },
        {
          "indexed": false,
          "internalType": "bool",
          "name": "approved",
          "type": "bool"
        }
      ],
      "name": "ApprovalForAll",
      "type": "event"
    },
    {
      "anonymous": false,
      "inputs": [
        {
          "indexed": false,
          "internalType": "uint256",
          "name": "_fromTokenId",
          "type": "uint256"
        },
        {
          "indexed": false,
          "internalType": "uint256",
          "name": "_toTokenId",
          "type": "uint256"
        }
      ],
      "name": "BatchMetadataUpdate",
      "type": "event"
    },
    {
      "anonymous": false,
      "inputs": [
        {
          "indexed": false,
          "internalType": "uint256",
          "name": "_tokenId",
          "type": "uint256"
        }
      ],
      "name": "MetadataUpdate",
      "type": "event"
    },
    {
      "anonymous": false,
      "inputs": [
        {
          "indexed": false,
          "internalType": "uint256",
          "name": "tokenId",
          "type": "uint256"
        },
        {
          "indexed": false,
          "internalType": "address",
          "name": "from",
          "type": "address"
        },
        {
          "indexed": false,
          "internalType": "address",
          "name": "to",
          "type": "address"
        },
        {
          "indexed": false,
          "internalType": "string",
          "name": "tokenURI",
          "type": "string"
        },
        {
          "indexed": false,
          "internalType": "uint256",
          "name": "price",
          "type": "uint256"
        }
      ],
      "name": "NFTTransfer",
      "type": "event"
    },
    {
      "anonymous": false,
      "inputs": [
        {
          "indexed": true,
          "internalType": "address",
          "name": "previousOwner",
          "type": "address"
        },
        {
          "indexed": true,
          "internalType": "address",
          "name": "newOwner",
          "type": "address"
        }
      ],
      "name": "OwnershipTransferred",
      "type": "event"
    },
    {
      "anonymous": false,
      "inputs": [
        {
          "indexed": true,
          "internalType": "address",
          "name": "from",
          "type": "address"
        },
        {
          "indexed": true,
          "internalType": "address",
          "name": "to",
          "type": "address"
        },
        {
          "indexed": true,
          "internalType": "uint256",
          "name": "tokenId",
          "type": "uint256"
        }
      ],
      "name": "Transfer",
      "type": "event"
    },
    {
      "inputs": [
        {
          "internalType": "address",
          "name": "to",
          "type": "address"
        },
        {
          "internalType": "uint256",
          "name": "tokenId",
          "type": "uint256"
        }
      ],
      "name": "approve",
      "outputs": [],
      "stateMutability": "nonpayable",
      "type": "function"
    },
    {
      "inputs": [
        {
          "internalType": "address",
          "name": "owner",
          "type": "address"
        }
      ],
      "name": "balanceOf",
      "outputs": [
        {
          "internalType": "uint256",
          "name": "",
          "type": "uint256"
        }
      ],
      "stateMutability": "view",
      "type": "function"
    },
    {
      "inputs": [
        {
          "internalType": "uint256",
          "name": "tokenId",
          "type": "uint256"
        }
      ],
      "name": "buyNFT",
      "outputs": [],
      "stateMutability": "payable",
      "type": "function"
    },
    {
      "inputs": [
        {
          "internalType": "uint256",
          "name": "tokenId",
          "type": "uint256"
        }
      ],
      "name": "cancelListing",
      "outputs": [],
      "stateMutability": "nonpayable",
      "type": "function"
    },
    {
      "inputs": [
        {
          "internalType": "string",
          "name": "tokenURI",
          "type": "string"
        }
      ],
      "name": "createNFT",
      "outputs": [],
      "stateMutability": "nonpayable",
      "type": "function"
    },
    {
      "inputs": [
        {
          "internalType": "uint256",
          "name": "tokenId",
          "type": "uint256"
        }
      ],
      "name": "getApproved",
      "outputs": [
        {
          "internalType": "address",
          "name": "",
          "type": "address"
        }
      ],
      "stateMutability": "view",
      "type": "function"
    },
    {
      "inputs": [
        {
          "internalType": "uint256",
          "name": "tokenId",
          "type": "uint256"
        }
      ],
      "name": "getListing",
      "outputs": [
        {
          "internalType": "uint256",
          "name": "",
          "type": "uint256"
        },
        {
          "internalType": "address",
          "name": "",
          "type": "address"
        }
      ],
      "stateMutability": "view",
      "type": "function"
    },
    {
      "inputs": [
        {
          "internalType": "address",
          "name": "owner",
          "type": "address"
        },
        {
          "internalType": "address",
          "name": "operator",
          "type": "address"
        }
      ],
      "name": "isApprovedForAll",
      "outputs": [
        {
          "internalType": "bool",
          "name": "",
          "type": "bool"
        }
      ],
      "stateMutability": "view",
      "type": "function"
    },
    {
      "inputs": [
        {
          "internalType": "uint256",
          "name": "tokenId",
          "type": "uint256"
        },
        {
          "internalType": "uint256",
          "name": "price",
          "type": "uint256"
        }
      ],
      "name": "listNFT",
      "outputs": [],
      "stateMutability": "nonpayable",
      "type": "function"
    },
    {
      "inputs": [],
      "name": "name",
      "outputs": [
        {
          "internalType": "string",
          "name": "",
          "type": "string"
        }
      ],
      "stateMutability": "view",
      "type": "function"
    },
    {
      "inputs": [],
      "name": "owner",
      "outputs": [
        {
          "internalType": "address",
          "name": "",
          "type": "address"
        }
      ],
      "stateMutability": "view",
      "type": "function"
    },
    {
      "inputs": [
        {
          "internalType": "uint256",
          "name": "tokenId",
          "type": "uint256"
        }
      ],
      "name": "ownerOf",
      "outputs": [
        {
          "internalType": "address",
          "name": "",
          "type": "address"
        }
      ],
      "stateMutability": "view",
      "type": "function"
    },
    {
      "inputs": [],
      "name": "renounceOwnership",
      "outputs": [],
      "stateMutability": "nonpayable",
      "type": "function"
    },
    {
      "inputs": [
        {
          "internalType": "address",
          "name": "from",
          "type": "address"
        },
        {
          "internalType": "address",
          "name": "to",
          "type": "address"
        },
        {
          "internalType": "uint256",
          "name": "tokenId",
          "type": "uint256"
        }
      ],
      "name": "safeTransferFrom",
      "outputs": [],
      "stateMutability": "nonpayable",
      "type": "function"
    },
    {
      "inputs": [
        {
          "internalType": "address",
          "name": "from",
          "type": "address"
        },
        {
          "internalType": "address",
          "name": "to",
          "type": "address"
        },
        {
          "internalType": "uint256",
          "name": "tokenId",
          "type": "uint256"
        },
        {
          "internalType": "bytes",
          "name": "data",
          "type": "bytes"
        }
      ],
      "name": "safeTransferFrom",
      "outputs": [],
      "stateMutability": "nonpayable",
      "type": "function"
    },
    {
      "inputs": [
        {
          "internalType": "address",
          "name": "operator",
          "type": "address"
        },
        {
          "internalType": "bool",
          "name": "approved",
          "type": "bool"
        }
      ],
      "name": "setApprovalForAll",
      "outputs": [],
      "stateMutability": "nonpayable",
      "type": "function"
    },
    {
      "inputs": [
        {
          "internalType": "bytes4",
          "name": "interfaceId",
          "type": "bytes4"
        }
      ],
      "name": "supportsInterface",
      "outputs": [
        {
          "internalType": "bool",
          "name": "",
          "type": "bool"
        }
      ],
      "stateMutability": "view",
      "type": "function"
    },
    {
      "inputs": [],
      "name": "symbol",
      "outputs": [
        {
          "internalType": "string",
          "name": "",
          "type": "string"
        }
      ],
      "stateMutability": "view",
      "type": "function"
    },
    {
      "inputs": [
        {
          "internalType": "uint256",
          "name": "tokenId",
          "type": "uint256"
        }
      ],
      "name": "tokenURI",
      "outputs": [
        {
          "internalType": "string",
          "name": "",
          "type": "string"
        }
      ],
      "stateMutability": "view",
      "type": "function"
    },
    {
      "inputs": [
        {
          "internalType": "address",
          "name": "from",
          "type": "address"
        },
        {
          "internalType": "address",
          "name": "to",
          "type": "address"
        },
        {
          "internalType": "uint256",
          "name": "tokenId",
          "type": "uint256"
        }
      ],
      "name": "transferFrom",
      "outputs": [],
      "stateMutability": "nonpayable",
      "type": "function"
    },
    {
      "inputs": [
        {
          "internalType": "address",
          "name": "newOwner",
          "type": "address"
        }
      ],
      "name": "transferOwnership",
      "outputs": [],
      "stateMutability": "nonpayable",
      "type": "function"
    },
    {
      "inputs": [],
      "name": "withdrawFunds",
      "outputs": [],
      "stateMutability": "nonpayable",
      "type": "function"
    }
  ],
  "bytecode": "0x6080604052600160085534801561001557600080fd5b50336040518060400160405280601581526020017f4e4654204d61726b6574706c61636520546f6b656e00000000000000000000008152506040518060400160405280600581526020017f4d594e465400000000000000000000000000000000000000000000000000000081525081600090816100929190610442565b5080600190816100a29190610442565b505050600073ffffffffffffffffffffffffffffffffffffffff168173ffffffffffffffffffffffffffffffffffffffff16036101175760006040517f1e4fbdf700000000000000000000000000000000000000000000000000000000815260040161010e9190610555565b60405180910390fd5b6101268161012c60201b60201c565b50610570565b6000600760009054906101000a900473ffffffffffffffffffffffffffffffffffffffff16905081600760006101000a81548173ffffffffffffffffffffffffffffffffffffffff021916908373ffffffffffffffffffffffffffffffffffffffff1602179055508173ffffffffffffffffffffffffffffffffffffffff168173ffffffffffffffffffffffffffffffffffffffff167f8be0079c531659141344cd1fd0a4f28419497f9722a3daafe3b4186f6b6457e060405160405180910390a35050565b600081519050919050565b7f4e487b7100000000000000000000000000000000000000000000000000000000600052604160045260246000fd5b7f4e487b7100000000000000000000000000000000000000000000000000000000600052602260045260246000fd5b6000600282049050600182168061027357607f821691505b6020821081036102865761028561022c565b5b50919050565b60008190508160005260206000209050919050565b60006020601f8301049050919050565b600082821b905092915050565b6000600883026102ee7fffffffffffffffffffffffffffffffffffffffffffffffffffffffffffffffff826102b1565b6102f886836102b1565b95508019841693508086168417925050509392505050565b6000819050919050565b6000819050919050565b600061033f61033a61033584610310565b61031a565b610310565b9050919050565b6000819050919050565b61035983610324565b61036d61036582610346565b8484546102be565b825550505050565b600090565b610382610375565b61038d818484610350565b505050565b5b818110156103b1576103a660008261037a565b600181019050610393565b5050565b601f8211156103f6576103c78161028c565b6103d0846102a1565b810160208510156103df578190505b6103f36103eb856102a1565b830182610392565b50505b505050565b600082821c905092915050565b6000610419600019846008026103fb565b1980831691505092915050565b60006104328383610408565b9150826002028217905092915050565b61044b826101f2565b67ffffffffffffffff811115610464576104636101fd565b5b61046e825461025b565b6104798282856103b5565b600060209050601f8311600181146104ac576000841561049a578287015190505b6104a48582610426565b86555061050c565b601f1984166104ba8661028c565b60005b828110156104e2578489015182556001820191506020850194506020810190506104bd565b868310156104ff57848901516104fb601f891682610408565b8355505b6001600288020188555050505b505050505050565b600073ffffffffffffffffffffffffffffffffffffffff82169050919050565b600061053f82610514565b9050919050565b61054f81610534565b82525050565b600060208201905061056a6000830184610546565b92915050565b61359e8061057f6000396000f3fe6080604052600436106101355760003560e01c806370a08231116100ab578063a22cb4651161006f578063a22cb46514610404578063b88d4fde1461042d578063c87b56dd14610456578063da2ed03e14610493578063e985e9c5146104bc578063f2fde38b146104f957610135565b806370a0823114610331578063715018a61461036e5780638da5cb5b1461038557806394383f14146103b057806395d89b41146103d957610135565b806323b872dd116100fd57806323b872dd1461024657806324600fc31461026f578063305a67a81461028657806342842e0e146102af57806351ed8288146102d85780636352211e146102f457610135565b806301ffc9a71461013a57806306fdde0314610177578063081812fc146101a2578063095ea7b3146101df578063107a274a14610208575b600080fd5b34801561014657600080fd5b50610161600480360381019061015c91906124dc565b610522565b60405161016e9190612524565b60405180910390f35b34801561018357600080fd5b5061018c610583565b60405161019991906125cf565b60405180910390f35b3480156101ae57600080fd5b506101c960048036038101906101c49190612627565b610615565b6040516101d69190612695565b60405180910390f35b3480156101eb57600080fd5b50610206600480360381019061020191906126dc565b610631565b005b34801561021457600080fd5b5061022f600480360381019061022a9190612627565b610647565b60405161023d92919061272b565b60405180910390f35b34801561025257600080fd5b5061026d60048036038101906102689190612754565b6106e0565b005b34801561027b57600080fd5b506102846107e2565b005b34801561029257600080fd5b506102ad60048036038101906102a89190612627565b610883565b005b3480156102bb57600080fd5b506102d660048036038101906102d19190612754565b610a50565b005b6102f260048036038101906102ed9190612627565b610a70565b005b34801561030057600080fd5b5061031b60048036038101906103169190612627565b610c7a565b6040516103289190612695565b60405180910390f35b34801561033d57600080fd5b50610358600480360381019061035391906127a7565b610c8c565b60405161036591906127d4565b60405180910390f35b34801561037a57600080fd5b50610383610d46565b005b34801561039157600080fd5b5061039a610d5a565b6040516103a79190612695565b60405180910390f35b3480156103bc57600080fd5b506103d760048036038101906103d291906127ef565b610d84565b005b3480156103e557600080fd5b506103ee610f1b565b6040516103fb91906125cf565b60405180910390f35b34801561041057600080fd5b5061042b6004803603810190610426919061285b565b610fad565b005b34801561043957600080fd5b50610454600480360381019061044f91906129d0565b610fc3565b005b34801561046257600080fd5b5061047d60048036038101906104789190612627565b610fe8565b60405161048a91906125cf565b60405180910390f35b34801561049f57600080fd5b506104ba60048036038101906104b59190612ab3565b6110fb565b005b3480156104c857600080fd5b506104e360048036038101906104de9190612b00565b6111ba565b6040516104f09190612524565b60405180910390f35b34801561050557600080fd5b50610520600480360381019061051b91906127a7565b61124e565b005b6000634906490660e01b7bffffffffffffffffffffffffffffffffffffffffffffffffffffffff1916827bffffffffffffffffffffffffffffffffffffffffffffffffffffffff1916148061057c575061057b826112d4565b5b9050919050565b60606000805461059290612b6f565b80601f01602080910402602001604051908101604052809291908181526020018280546105be90612b6f565b801561060b5780601f106105e05761010080835404028352916020019161060b565b820191906000526020600020905b8154815290600101906020018083116105ee57829003601f168201915b5050505050905090565b6000610620826113b6565b5061062a8261143e565b9050919050565b610643828261063e61147b565b611483565b5050565b600080600060096000858152602001908152602001600020604051806040016040529081600082015481526020016001820160009054906101000a900473ffffffffffffffffffffffffffffffffffffffff1673ffffffffffffffffffffffffffffffffffffffff1673ffffffffffffffffffffffffffffffffffffffff16815250509050806000015181602001519250925050915091565b600073ffffffffffffffffffffffffffffffffffffffff168273ffffffffffffffffffffffffffffffffffffffff16036107525760006040517f64a0ae920000000000000000000000000000000000000000000000000000000081526004016107499190612695565b60405180910390fd5b6000610766838361076161147b565b611495565b90508373ffffffffffffffffffffffffffffffffffffffff168173ffffffffffffffffffffffffffffffffffffffff16146107dc578382826040517f64283d7b0000000000000000000000000000000000000000000000000000000081526004016107d393929190612ba0565b60405180910390fd5b50505050565b6107ea6116af565b600047905060008111610832576040517f08c379a000000000000000000000000000000000000000000000000000000000815260040161082990612c23565b60405180910390fd5b61083a610d5a565b73ffffffffffffffffffffffffffffffffffffffff166108fc829081150290604051600060405180830381858888f1935050505015801561087f573d6000803e3d6000fd5b5050565b600060096000838152602001908152602001600020604051806040016040529081600082015481526020016001820160009054906101000a900473ffffffffffffffffffffffffffffffffffffffff1673ffffffffffffffffffffffffffffffffffffffff1673ffffffffffffffffffffffffffffffffffffffff16815250509050600081600001511161094c576040517f08c379a000000000000000000000000000000000000000000000000000000000815260040161094390612c8f565b60405180910390fd5b3373ffffffffffffffffffffffffffffffffffffffff16816020015173ffffffffffffffffffffffffffffffffffffffff16146109be576040517f08c379a00000000000000000000000000000000000000000000000000000000081526004016109b590612cfb565b60405180910390fd5b600960008381526020019081526020016000206000808201600090556001820160006101000a81549073ffffffffffffffffffffffffffffffffffffffff02191690555050610a0e303384611736565b7f705332a8918666802fc1504f63ff1f002a5f6cedd30d59ad7ae0b5281aeb8dca8230336000604051610a449493929190612d86565b60405180910390a15050565b610a6b83838360405180602001604052806000815250610fc3565b505050565b600060096000838152602001908152602001600020604051806040016040529081600082015481526020016001820160009054906101000a900473ffffffffffffffffffffffffffffffffffffffff1673ffffffffffffffffffffffffffffffffffffffff1673ffffffffffffffffffffffffffffffffffffffff168152505090506000816000015111610b39576040517f08c379a0000000000000000000000000000000000000000000000000000000008152600401610b3090612e2a565b60405180910390fd5b80600001513414610b7f576040517f08c379a0000000000000000000000000000000000000000000000000000000008152600401610b7690612e96565b60405180910390fd5b600960008381526020019081526020016000206000808201600090556001820160006101000a81549073ffffffffffffffffffffffffffffffffffffffff0219169055505060006064605f34610bd59190612ee5565b610bdf9190612f56565b9050816020015173ffffffffffffffffffffffffffffffffffffffff166108fc829081150290604051600060405180830381858888f19350505050158015610c2b573d6000803e3d6000fd5b50610c37303385611736565b7f705332a8918666802fc1504f63ff1f002a5f6cedd30d59ad7ae0b5281aeb8dca8330336000604051610c6d9493929190612d86565b60405180910390a1505050565b6000610c85826113b6565b9050919050565b60008073ffffffffffffffffffffffffffffffffffffffff168273ffffffffffffffffffffffffffffffffffffffff1603610cff5760006040517f89c62b64000000000000000000000000000000000000000000000000000000008152600401610cf69190612695565b60405180910390fd5b600360008373ffffffffffffffffffffffffffffffffffffffff1673ffffffffffffffffffffffffffffffffffffffff168152602001908152602001600020549050919050565b610d4e6116af565b610d5860006118a3565b565b6000600760009054906101000a900473ffffffffffffffffffffffffffffffffffffffff16905090565b3373ffffffffffffffffffffffffffffffffffffffff16610da483610c7a565b73ffffffffffffffffffffffffffffffffffffffff1614610dfa576040517f08c379a0000000000000000000000000000000000000000000000000000000008152600401610df190612fd3565b60405180910390fd5b60008111610e3d576040517f08c379a0000000000000000000000000000000000000000000000000000000008152600401610e349061303f565b60405180910390fd5b610e48333084611736565b60405180604001604052808281526020013373ffffffffffffffffffffffffffffffffffffffff16815250600960008481526020019081526020016000206000820151816000015560208201518160010160006101000a81548173ffffffffffffffffffffffffffffffffffffffff021916908373ffffffffffffffffffffffffffffffffffffffff1602179055509050507f705332a8918666802fc1504f63ff1f002a5f6cedd30d59ad7ae0b5281aeb8dca82333084604051610f0f949392919061305f565b60405180910390a15050565b606060018054610f2a90612b6f565b80601f0160208091040260200160405190810160405280929190818152602001828054610f5690612b6f565b8015610fa35780601f10610f7857610100808354040283529160200191610fa3565b820191906000526020600020905b815481529060010190602001808311610f8657829003601f168201915b5050505050905090565b610fbf610fb861147b565b8383611969565b5050565b610fce8484846106e0565b610fe2610fd961147b565b85858585611ad8565b50505050565b6060610ff3826113b6565b50600060066000848152602001908152602001600020805461101490612b6f565b80601f016020809104026020016040519081016040528092919081815260200182805461104090612b6f565b801561108d5780601f106110625761010080835404028352916020019161108d565b820191906000526020600020905b81548152906001019060200180831161107057829003601f168201915b50505050509050600061109e611c89565b905060008151036110b35781925050506110f6565b6000825111156110e85780826040516020016110d09291906130f3565b604051602081830303815290604052925050506110f6565b6110f184611ca0565b925050505b919050565b600060085490506008600081548092919061111590613117565b91905055506111243382611d09565b6111728184848080601f016020809104026020016040519081016040528093929190818152602001838380828437600081840152601f19601f82011690508083019250505050505050611e02565b7f705332a8918666802fc1504f63ff1f002a5f6cedd30d59ad7ae0b5281aeb8dca81600033868660006040516111ad9695949392919061318c565b60405180910390a1505050565b6000600560008473ffffffffffffffffffffffffffffffffffffffff1673ffffffffffffffffffffffffffffffffffffffff16815260200190815260200160002060008373ffffffffffffffffffffffffffffffffffffffff1673ffffffffffffffffffffffffffffffffffffffff16815260200190815260200160002060009054906101000a900460ff16905092915050565b6112566116af565b600073ffffffffffffffffffffffffffffffffffffffff168173ffffffffffffffffffffffffffffffffffffffff16036112c85760006040517f1e4fbdf70000000000000000000000000000000000000000000000000000000081526004016112bf9190612695565b60405180910390fd5b6112d1816118a3565b50565b60007f80ac58cd000000000000000000000000000000000000000000000000000000007bffffffffffffffffffffffffffffffffffffffffffffffffffffffff1916827bffffffffffffffffffffffffffffffffffffffffffffffffffffffff1916148061139f57507f5b5e139f000000000000000000000000000000000000000000000000000000007bffffffffffffffffffffffffffffffffffffffffffffffffffffffff1916827bffffffffffffffffffffffffffffffffffffffffffffffffffffffff1916145b806113af57506113ae82611e5e565b5b9050919050565b6000806113c283611ec8565b9050600073ffffffffffffffffffffffffffffffffffffffff168173ffffffffffffffffffffffffffffffffffffffff160361143557826040517f7e27328900000000000000000000000000000000000000000000000000000000815260040161142c91906127d4565b60405180910390fd5b80915050919050565b60006004600083815260200190815260200160002060009054906101000a900473ffffffffffffffffffffffffffffffffffffffff169050919050565b600033905090565b6114908383836001611f05565b505050565b6000806114a184611ec8565b9050600073ffffffffffffffffffffffffffffffffffffffff168373ffffffffffffffffffffffffffffffffffffffff16146114e3576114e28184866120ca565b5b600073ffffffffffffffffffffffffffffffffffffffff168173ffffffffffffffffffffffffffffffffffffffff161461157457611525600085600080611f05565b6001600360008373ffffffffffffffffffffffffffffffffffffffff1673ffffffffffffffffffffffffffffffffffffffff168152602001908152602001600020600082825403925050819055505b600073ffffffffffffffffffffffffffffffffffffffff168573ffffffffffffffffffffffffffffffffffffffff16146115f7576001600360008773ffffffffffffffffffffffffffffffffffffffff1673ffffffffffffffffffffffffffffffffffffffff168152602001908152602001600020600082825401925050819055505b846002600086815260200190815260200160002060006101000a81548173ffffffffffffffffffffffffffffffffffffffff021916908373ffffffffffffffffffffffffffffffffffffffff160217905550838573ffffffffffffffffffffffffffffffffffffffff168273ffffffffffffffffffffffffffffffffffffffff167fddf252ad1be2c89b69c2b068fc378daa952ba7f163c4a11628f55a4df523b3ef60405160405180910390a4809150509392505050565b6116b761147b565b73ffffffffffffffffffffffffffffffffffffffff166116d5610d5a565b73ffffffffffffffffffffffffffffffffffffffff1614611734576116f861147b565b6040517f118cdaa700000000000000000000000000000000000000000000000000000000815260040161172b9190612695565b60405180910390fd5b565b600073ffffffffffffffffffffffffffffffffffffffff168273ffffffffffffffffffffffffffffffffffffffff16036117a85760006040517f64a0ae9200000000000000000000000000000000000000000000000000000000815260040161179f9190612695565b60405180910390fd5b60006117b683836000611495565b9050600073ffffffffffffffffffffffffffffffffffffffff168173ffffffffffffffffffffffffffffffffffffffff160361182957816040517f7e27328900000000000000000000000000000000000000000000000000000000815260040161182091906127d4565b60405180910390fd5b8373ffffffffffffffffffffffffffffffffffffffff168173ffffffffffffffffffffffffffffffffffffffff161461189d578382826040517f64283d7b00000000000000000000000000000000000000000000000000000000815260040161189493929190612ba0565b60405180910390fd5b50505050565b6000600760009054906101000a900473ffffffffffffffffffffffffffffffffffffffff16905081600760006101000a81548173ffffffffffffffffffffffffffffffffffffffff021916908373ffffffffffffffffffffffffffffffffffffffff1602179055508173ffffffffffffffffffffffffffffffffffffffff168173ffffffffffffffffffffffffffffffffffffffff167f8be0079c531659141344cd1fd0a4f28419497f9722a3daafe3b4186f6b6457e060405160405180910390a35050565b600073ffffffffffffffffffffffffffffffffffffffff168273ffffffffffffffffffffffffffffffffffffffff16036119da57816040517f5b08ba180000000000000000000000000000000000000000000000000000000081526004016119d19190612695565b60405180910390fd5b80600560008573ffffffffffffffffffffffffffffffffffffffff1673ffffffffffffffffffffffffffffffffffffffff16815260200190815260200160002060008473ffffffffffffffffffffffffffffffffffffffff1673ffffffffffffffffffffffffffffffffffffffff16815260200190815260200160002060006101000a81548160ff0219169083151502179055508173ffffffffffffffffffffffffffffffffffffffff168373ffffffffffffffffffffffffffffffffffffffff167f17307eab39ab6107e8899845ad3d59bd9653f200f220920489ca2b5937696c3183604051611acb9190612524565b60405180910390a3505050565b60008373ffffffffffffffffffffffffffffffffffffffff163b1115611c82578273ffffffffffffffffffffffffffffffffffffffff1663150b7a02868685856040518563ffffffff1660e01b8152600401611b37949392919061323d565b6020604051808303816000875af1925050508015611b7357506040513d601f19601f82011682018060405250810190611b70919061329e565b60015b611bf7573d8060008114611ba3576040519150601f19603f3d011682016040523d82523d6000602084013e611ba8565b606091505b506000815103611bef57836040517f64a0ae92000000000000000000000000000000000000000000000000000000008152600401611be69190612695565b60405180910390fd5b805181602001fd5b63150b7a0260e01b7bffffffffffffffffffffffffffffffffffffffffffffffffffffffff1916817bffffffffffffffffffffffffffffffffffffffffffffffffffffffff191614611c8057836040517f64a0ae92000000000000000000000000000000000000000000000000000000008152600401611c779190612695565b60405180910390fd5b505b5050505050565b606060405180602001604052806000815250905090565b6060611cab826113b6565b506000611cb6611c89565b90506000815111611cd65760405180602001604052806000815250611d01565b80611ce08461218e565b604051602001611cf19291906130f3565b6040516020818303038152906040525b915050919050565b600073ffffffffffffffffffffffffffffffffffffffff168273ffffffffffffffffffffffffffffffffffffffff1603611d7b5760006040517f64a0ae92000000000000000000000000000000000000000000000000000000008152600401611d729190612695565b60405180910390fd5b6000611d8983836000611495565b9050600073ffffffffffffffffffffffffffffffffffffffff168173ffffffffffffffffffffffffffffffffffffffff1614611dfd5760006040517f73c6ac6e000000000000000000000000000000000000000000000000000000008152600401611df49190612695565b60405180910390fd5b505050565b80600660008481526020019081526020016000209081611e22919061346d565b507ff8e1a15aba9398e019f0b49df1a4fde98ee17ae345cb5f6b5e2c27f5033e8ce782604051611e5291906127d4565b60405180910390a15050565b60007f01ffc9a7000000000000000000000000000000000000000000000000000000007bffffffffffffffffffffffffffffffffffffffffffffffffffffffff1916827bffffffffffffffffffffffffffffffffffffffffffffffffffffffff1916149050919050565b60006002600083815260200190815260200160002060009054906101000a900473ffffffffffffffffffffffffffffffffffffffff169050919050565b8080611f3e5750600073ffffffffffffffffffffffffffffffffffffffff168273ffffffffffffffffffffffffffffffffffffffff1614155b15612072576000611f4e846113b6565b9050600073ffffffffffffffffffffffffffffffffffffffff168373ffffffffffffffffffffffffffffffffffffffff1614158015611fb957508273ffffffffffffffffffffffffffffffffffffffff168173ffffffffffffffffffffffffffffffffffffffff1614155b8015611fcc5750611fca81846111ba565b155b1561200e57826040517fa9fbf51f0000000000000000000000000000000000000000000000000000000081526004016120059190612695565b60405180910390fd5b811561207057838573ffffffffffffffffffffffffffffffffffffffff168273ffffffffffffffffffffffffffffffffffffffff167f8c5be1e5ebec7d5bd14f71427d1e84f3dd0314c0f7b2291e5b200ac8c7c3b92560405160405180910390a45b505b836004600085815260200190815260200160002060006101000a81548173ffffffffffffffffffffffffffffffffffffffff021916908373ffffffffffffffffffffffffffffffffffffffff16021790555050505050565b6120d583838361225c565b61218957600073ffffffffffffffffffffffffffffffffffffffff168373ffffffffffffffffffffffffffffffffffffffff160361214a57806040517f7e27328900000000000000000000000000000000000000000000000000000000815260040161214191906127d4565b60405180910390fd5b81816040517f177e802f00000000000000000000000000000000000000000000000000000000815260040161218092919061353f565b60405180910390fd5b505050565b60606000600161219d8461231d565b01905060008167ffffffffffffffff8111156121bc576121bb6128a5565b5b6040519080825280601f01601f1916602001820160405280156121ee5781602001600182028036833780820191505090505b509050600082602001820190505b600115612251578080600190039150507f3031323334353637383961626364656600000000000000000000000000000000600a86061a8153600a858161224557612244612f27565b5b049450600085036121fc575b819350505050919050565b60008073ffffffffffffffffffffffffffffffffffffffff168373ffffffffffffffffffffffffffffffffffffffff161415801561231457508273ffffffffffffffffffffffffffffffffffffffff168473ffffffffffffffffffffffffffffffffffffffff1614806122d557506122d484846111ba565b5b8061231357508273ffffffffffffffffffffffffffffffffffffffff166122fb8361143e565b73ffffffffffffffffffffffffffffffffffffffff16145b5b90509392505050565b600080600090507a184f03e93ff9f4daa797ed6e38ed64bf6a1f010000000000000000831061237b577a184f03e93ff9f4daa797ed6e38ed64bf6a1f010000000000000000838161237157612370612f27565b5b0492506040810190505b6d04ee2d6d415b85acef810000000083106123b8576d04ee2d6d415b85acef810000000083816123ae576123ad612f27565b5b0492506020810190505b662386f26fc1000083106123e757662386f26fc1000083816123dd576123dc612f27565b5b0492506010810190505b6305f5e1008310612410576305f5e100838161240657612405612f27565b5b0492506008810190505b612710831061243557612710838161242b5761242a612f27565b5b0492506004810190505b60648310612458576064838161244e5761244d612f27565b5b0492506002810190505b600a8310612467576001810190505b80915050919050565b6000604051905090565b600080fd5b600080fd5b60007fffffffff0000000000000000000000000000000000000000000000000000000082169050919050565b6124b981612484565b81146124c457600080fd5b50565b6000813590506124d6816124b0565b92915050565b6000602082840312156124f2576124f161247a565b5b6000612500848285016124c7565b91505092915050565b60008115159050919050565b61251e81612509565b82525050565b60006020820190506125396000830184612515565b92915050565b600081519050919050565b600082825260208201905092915050565b60005b8381101561257957808201518184015260208101905061255e565b60008484015250505050565b6000601f19601f8301169050919050565b60006125a18261253f565b6125ab818561254a565b93506125bb81856020860161255b565b6125c481612585565b840191505092915050565b600060208201905081810360008301526125e98184612596565b905092915050565b6000819050919050565b612604816125f1565b811461260f57600080fd5b50565b600081359050612621816125fb565b92915050565b60006020828403121561263d5761263c61247a565b5b600061264b84828501612612565b91505092915050565b600073ffffffffffffffffffffffffffffffffffffffff82169050919050565b600061267f82612654565b9050919050565b61268f81612674565b82525050565b60006020820190506126aa6000830184612686565b92915050565b6126b981612674565b81146126c457600080fd5b50565b6000813590506126d6816126b0565b92915050565b600080604083850312156126f3576126f261247a565b5b6000612701858286016126c7565b925050602061271285828601612612565b9150509250929050565b612725816125f1565b82525050565b6000604082019050612740600083018561271c565b61274d6020830184612686565b9392505050565b60008060006060848603121561276d5761276c61247a565b5b600061277b868287016126c7565b935050602061278c868287016126c7565b925050604061279d86828701612612565b9150509250925092565b6000602082840312156127bd576127bc61247a565b5b60006127cb848285016126c7565b91505092915050565b60006020820190506127e9600083018461271c565b92915050565b600080604083850312156128065761280561247a565b5b600061281485828601612612565b925050602061282585828601612612565b9150509250929050565b61283881612509565b811461284357600080fd5b50565b6000813590506128558161282f565b92915050565b600080604083850312156128725761287161247a565b5b6000612880858286016126c7565b925050602061289185828601612846565b9150509250929050565b600080fd5b600080fd5b7f4e487b7100000000000000000000000000000000000000000000000000000000600052604160045260246000fd5b6128dd82612585565b810181811067ffffffffffffffff821117156128fc576128fb6128a5565b5b80604052505050565b600061290f612470565b905061291b82826128d4565b919050565b600067ffffffffffffffff82111561293b5761293a6128a5565b5b61294482612585565b9050602081019050919050565b82818337600083830152505050565b600061297361296e84612920565b612905565b90508281526020810184848401111561298f5761298e6128a0565b5b61299a848285612951565b509392505050565b600082601f8301126129b7576129b661289b565b5b81356129c7848260208601612960565b91505092915050565b600080600080608085870312156129ea576129e961247a565b5b60006129f8878288016126c7565b9450506020612a09878288016126c7565b9350506040612a1a87828801612612565b925050606085013567ffffffffffffffff811115612a3b57612a3a61247f565b5b612a47878288016129a2565b91505092959194509250565b600080fd5b600080fd5b60008083601f840112612a7357612a7261289b565b5b8235905067ffffffffffffffff811115612a9057612a8f612a53565b5b602083019150836001820283011115612aac57612aab612a58565b5b9250929050565b60008060208385031215612aca57612ac961247a565b5b600083013567ffffffffffffffff811115612ae857612ae761247f565b5b612af485828601612a5d565b92509250509250929050565b60008060408385031215612b1757612b1661247a565b5b6000612b25858286016126c7565b9250506020612b36858286016126c7565b9150509250929050565b7f4e487b7100000000000000000000000000000000000000000000000000000000600052602260045260246000fd5b60006002820490506001821680612b8757607f821691505b602082108103612b9a57612b99612b40565b5b50919050565b6000606082019050612bb56000830186612686565b612bc2602083018561271c565b612bcf6040830184612686565b949350505050565b7f4e6f2062616c616e636520746f20776974686472617700000000000000000000600082015250565b6000612c0d60168361254a565b9150612c1882612bd7565b602082019050919050565b60006020820190508181036000830152612c3c81612c00565b9050919050565b7f4e4654206e6f74206c6973746564000000000000000000000000000000000000600082015250565b6000612c79600e8361254a565b9150612c8482612c43565b602082019050919050565b60006020820190508181036000830152612ca881612c6c565b9050919050565b7f596f75277265206e6f74207468652073656c6c65720000000000000000000000600082015250565b6000612ce560158361254a565b9150612cf082612caf565b602082019050919050565b60006020820190508181036000830152612d1481612cd8565b9050919050565b50565b6000612d2b60008361254a565b9150612d3682612d1b565b600082019050919050565b6000819050919050565b6000819050919050565b6000612d70612d6b612d6684612d41565b612d4b565b6125f1565b9050919050565b612d8081612d55565b82525050565b600060a082019050612d9b600083018761271c565b612da86020830186612686565b612db56040830185612686565b8181036060830152612dc681612d1e565b9050612dd56080830184612d77565b95945050505050565b7f4e4654206e6f74206c697374656420666f722073616c65000000000000000000600082015250565b6000612e1460178361254a565b9150612e1f82612dde565b602082019050919050565b60006020820190508181036000830152612e4381612e07565b9050919050565b7f496e636f7272656374207061796d656e7420616d6f756e740000000000000000600082015250565b6000612e8060188361254a565b9150612e8b82612e4a565b602082019050919050565b60006020820190508181036000830152612eaf81612e73565b9050919050565b7f4e487b7100000000000000000000000000000000000000000000000000000000600052601160045260246000fd5b6000612ef0826125f1565b9150612efb836125f1565b9250828202612f09816125f1565b91508282048414831517612f2057612f1f612eb6565b5b5092915050565b7f4e487b7100000000000000000000000000000000000000000000000000000000600052601260045260246000fd5b6000612f61826125f1565b9150612f6c836125f1565b925082612f7c57612f7b612f27565b5b828204905092915050565b7f4e6f742074686520746f6b656e206f776e657200000000000000000000000000600082015250565b6000612fbd60138361254a565b9150612fc882612f87565b602082019050919050565b60006020820190508181036000830152612fec81612fb0565b9050919050565b7f5072696365206d7573742062652067726561746572207468616e207a65726f00600082015250565b6000613029601f8361254a565b915061303482612ff3565b602082019050919050565b600060208201905081810360008301526130588161301c565b9050919050565b600060a082019050613074600083018761271c565b6130816020830186612686565b61308e6040830185612686565b818103606083015261309f81612d1e565b90506130ae608083018461271c565b95945050505050565b600081905092915050565b60006130cd8261253f565b6130d781856130b7565b93506130e781856020860161255b565b80840191505092915050565b60006130ff82856130c2565b915061310b82846130c2565b91508190509392505050565b6000613122826125f1565b91507fffffffffffffffffffffffffffffffffffffffffffffffffffffffffffffffff820361315457613153612eb6565b5b600182019050919050565b600061316b838561254a565b9350613178838584612951565b61318183612585565b840190509392505050565b600060a0820190506131a1600083018961271c565b6131ae6020830188612686565b6131bb6040830187612686565b81810360608301526131ce81858761315f565b90506131dd6080830184612d77565b979650505050505050565b600081519050919050565b600082825260208201905092915050565b600061320f826131e8565b61321981856131f3565b935061322981856020860161255b565b61323281612585565b840191505092915050565b60006080820190506132526000830187612686565b61325f6020830186612686565b61326c604083018561271c565b818103606083015261327e8184613204565b905095945050505050565b600081519050613298816124b0565b92915050565b6000602082840312156132b4576132b361247a565b5b60006132c284828501613289565b91505092915050565b60008190508160005260206000209050919050565b60006020601f8301049050919050565b600082821b905092915050565b60006008830261332d7fffffffffffffffffffffffffffffffffffffffffffffffffffffffffffffffff826132f0565b61333786836132f0565b95508019841693508086168417925050509392505050565b600061336a613365613360846125f1565b612d4b565b6125f1565b9050919050565b6000819050919050565b6133848361334f565b61339861339082613371565b8484546132fd565b825550505050565b600090565b6133ad6133a0565b6133b881848461337b565b505050565b5b818110156133dc576133d16000826133a5565b6001810190506133be565b5050565b601f821115613421576133f2816132cb565b6133fb846132e0565b8101602085101561340a578190505b61341e613416856132e0565b8301826133bd565b50505b505050565b600082821c905092915050565b600061344460001984600802613426565b1980831691505092915050565b600061345d8383613433565b9150826002028217905092915050565b6134768261253f565b67ffffffffffffffff81111561348f5761348e6128a5565b5b6134998254612b6f565b6134a48282856133e0565b600060209050601f8311600181146134d757600084156134c5578287015190505b6134cf8582613451565b865550613537565b601f1984166134e5866132cb565b60005b8281101561350d578489015182556001820191506020850194506020810190506134e8565b8683101561352a5784890151613526601f891682613433565b8355505b6001600288020188555050505b505050505050565b60006040820190506135546000830185612686565b613561602083018461271c565b939250505056fea26469706673582212208bd864836d271b5f9b00557bcc6254fa3a1bc3e46538e4eb807855afeefa408464736f6c634300081c0033",
  "linkReferences": {},
  "deployedLinkReferences": {}
}